{
  "_format": "hh-sol-artifact-1",
  "contractName": "MerkleAuditProof",
  "sourceName": "contracts/MerkleAuditProof.sol",
  "abi": [
    {
      "inputs": [],
      "stateMutability": "nonpayable",
      "type": "constructor"
    },
    {
      "inputs": [
        {
          "internalType": "address",
          "name": "owner",
          "type": "address"
        }
      ],
      "name": "OwnableInvalidOwner",
      "type": "error"
    },
    {
      "inputs": [
        {
          "internalType": "address",
          "name": "account",
          "type": "address"
        }
      ],
      "name": "OwnableUnauthorizedAccount",
      "type": "error"
    },
    {
      "anonymous": false,
      "inputs": [
        {
          "indexed": true,
          "internalType": "string",
          "name": "auditId",
          "type": "string"
        },
        {
          "indexed": true,
          "internalType": "address",
          "name": "auditor",
          "type": "address"
        },
        {
          "indexed": false,
          "internalType": "bytes32",
          "name": "merkleRoot",
          "type": "bytes32"
        },
        {
          "indexed": false,
          "internalType": "uint256",
          "name": "timestamp",
          "type": "uint256"
        }
      ],
      "name": "AuditProofStored",
      "type": "event"
    },
    {
      "anonymous": false,
      "inputs": [
        {
          "indexed": true,
          "internalType": "string",
          "name": "auditId",
          "type": "string"
        },
        {
          "indexed": false,
          "internalType": "bytes32",
          "name": "leaf",
          "type": "bytes32"
        },
        {
          "indexed": false,
          "internalType": "bool",
          "name": "isValid",
          "type": "bool"
        }
      ],
      "name": "LeafVerified",
      "type": "event"
    },
    {
      "anonymous": false,
      "inputs": [
        {
          "indexed": true,
          "internalType": "address",
          "name": "previousOwner",
          "type": "address"
        },
        {
          "indexed": true,
          "internalType": "address",
          "name": "newOwner",
          "type": "address"
        }
      ],
      "name": "OwnershipTransferred",
      "type": "event"
    },
    {
      "inputs": [
        {
          "internalType": "uint256",
          "name": "",
          "type": "uint256"
        }
      ],
      "name": "auditIds",
      "outputs": [
        {
          "internalType": "string",
          "name": "",
          "type": "string"
        }
      ],
      "stateMutability": "view",
      "type": "function"
    },
    {
      "inputs": [
        {
          "internalType": "string",
          "name": "",
          "type": "string"
        }
      ],
      "name": "auditProofs",
      "outputs": [
        {
          "internalType": "bytes32",
          "name": "merkleRoot",
          "type": "bytes32"
        },
        {
          "internalType": "address",
          "name": "auditor",
          "type": "address"
        },
        {
          "internalType": "uint256",
          "name": "timestamp",
          "type": "uint256"
        },
        {
          "internalType": "string",
          "name": "auditId",
          "type": "string"
        },
        {
          "internalType": "bool",
          "name": "exists",
          "type": "bool"
        }
      ],
      "stateMutability": "view",
      "type": "function"
    },
    {
      "inputs": [
        {
          "internalType": "string",
          "name": "auditId",
          "type": "string"
        },
        {
          "internalType": "bytes32",
          "name": "leaf",
          "type": "bytes32"
        },
        {
          "internalType": "bytes32[]",
          "name": "merkleProof",
          "type": "bytes32[]"
        }
      ],
      "name": "checkLeafValidity",
      "outputs": [
        {
          "internalType": "bool",
          "name": "",
          "type": "bool"
        }
      ],
      "stateMutability": "view",
      "type": "function"
    },
    {
      "inputs": [
        {
          "internalType": "string",
          "name": "auditId",
          "type": "string"
        }
      ],
      "name": "getAuditProof",
      "outputs": [
        {
          "components": [
            {
              "internalType": "bytes32",
              "name": "merkleRoot",
              "type": "bytes32"
            },
            {
              "internalType": "address",
              "name": "auditor",
              "type": "address"
            },
            {
              "internalType": "uint256",
              "name": "timestamp",
              "type": "uint256"
            },
            {
              "internalType": "string",
              "name": "auditId",
              "type": "string"
            },
            {
              "internalType": "bool",
              "name": "exists",
              "type": "bool"
            }
          ],
          "internalType": "struct MerkleAuditProof.AuditProof",
          "name": "",
          "type": "tuple"
        }
      ],
      "stateMutability": "view",
      "type": "function"
    },
    {
      "inputs": [],
      "name": "getTotalProofs",
      "outputs": [
        {
          "internalType": "uint256",
          "name": "",
          "type": "uint256"
        }
      ],
      "stateMutability": "view",
      "type": "function"
    },
    {
      "inputs": [],
      "name": "owner",
      "outputs": [
        {
          "internalType": "address",
          "name": "",
          "type": "address"
        }
      ],
      "stateMutability": "view",
      "type": "function"
    },
    {
      "inputs": [],
      "name": "renounceOwnership",
      "outputs": [],
      "stateMutability": "nonpayable",
      "type": "function"
    },
    {
      "inputs": [
        {
          "internalType": "address",
          "name": "auditor",
          "type": "address"
        },
        {
          "internalType": "bytes32",
          "name": "merkleRoot",
          "type": "bytes32"
        },
        {
          "internalType": "string",
          "name": "auditId",
          "type": "string"
        }
      ],
      "name": "storeAuditProof",
      "outputs": [],
      "stateMutability": "nonpayable",
      "type": "function"
    },
    {
      "inputs": [
        {
          "internalType": "address",
          "name": "newOwner",
          "type": "address"
        }
      ],
      "name": "transferOwnership",
      "outputs": [],
      "stateMutability": "nonpayable",
      "type": "function"
    },
    {
      "inputs": [
        {
          "internalType": "string",
          "name": "auditId",
          "type": "string"
        },
        {
          "internalType": "bytes32",
          "name": "leaf",
          "type": "bytes32"
        },
        {
          "internalType": "bytes32[]",
          "name": "merkleProof",
          "type": "bytes32[]"
        }
      ],
      "name": "verifyLeaf",
      "outputs": [
        {
          "internalType": "bool",
          "name": "",
          "type": "bool"
        }
      ],
      "stateMutability": "nonpayable",
      "type": "function"
    }
  ],
  "bytecode": "0x6080806040523461007a5733156100645760008054336001600160a01b03198216811783556040519290916001600160a01b0316907f8be0079c531659141344cd1fd0a4f28419497f9722a3daafe3b4186f6b6457e09080a3610c4e90816100808239f35b631e4fbdf760e01b815260006004820152602490fd5b600080fdfe6040608081526004908136101561001557600080fd5b600091823560e01c80630e5ad7051461058a57806316fd0afa146105625780634c07a9a314610500578063715018a6146104a6578063876e551e146104415780638da5cb5b146104195780639b1bc0c9146103fa578063aae12f39146101c9578063bad6fadb146101185763f2fde38b1461008f57600080fd5b34610114576020366003190112610114576100a8610967565b906100b161097d565b6001600160a01b039182169283156100fe57505082546001600160a01b0319811683178455167f8be0079c531659141344cd1fd0a4f28419497f9722a3daafe3b4186f6b6457e08380a380f35b51631e4fbdf760e01b8152908101849052602490fd5b8280fd5b5091346101c65760203660031901126101c65782359067ffffffffffffffff82116101c657506020610150610162923690860161072e565b8184519382858094519384920161078a565b81016001815203019020906101ba82549260018060a01b036001820154169460ff600283015491610195600385016108c1565b930154169380519687968752602087015285015260a0606085015260a08401906107ad565b90151560808301520390f35b80fd5b509190346103f65760603660031901126103f6576101e5610967565b906024359060443567ffffffffffffffff81116103f257610209903690870161072e565b9161021261097d565b815192805160ff8860209687818187019561022e81838961078a565b810160018152030190200154166103af578215610376578784916102d3835191610257836106be565b8683528883019960018060a01b038091169a8b8152868501914283526102988c60608801958b87528b60808a019b60018d525193849283925192839161078a565b8101600181520301902095518655600186019151166bffffffffffffffffffffffff60a01b82541617905551600284015551600383016109a9565b019051151560ff801983541691161790556002546801000000000000000081101561036357806001610308920160025561083a565b610351578161033d7f33930f8a9733fef9fce865d7f39448adda703102eb5aa980093ad6f9096d5bd5959493610342936109a9565b610ab9565b9382519182524290820152a380f35b634e487b7160e01b8752868852602487fd5b634e487b7160e01b875260418852602487fd5b835162461bcd60e51b81528089018690526013602482015272125b9d985b1a59081b595c9adb19481c9bdbdd606a1b6044820152606490fd5b835162461bcd60e51b8152808901869052601a60248201527f41756469742070726f6f6620616c7265616479206578697374730000000000006044820152606490fd5b8480fd5b5080fd5b5050346103f657816003193601126103f6576020906002549051908152f35b5050346103f657816003193601126103f657905490516001600160a01b039091168152602090f35b5091346101c65760203660031901126101c65782356002548110156103f6576104699061083a565b939093610494576104908361047d866108c1565b90519182916020835260208301906107ad565b0390f35b634e487b7160e01b8252819052602490fd5b83346101c657806003193601126101c6576104bf61097d565b80546001600160a01b03198116825581906001600160a01b03167f8be0079c531659141344cd1fd0a4f28419497f9722a3daafe3b4186f6b6457e08280a380f35b8284346101c657602061054d836105477f01aba74e67c5932a05fc1140c9af469c9f0e4248de929bacdb5a3252127649098261053b366107d2565b90828497939994610b1d565b93610ab9565b9281519586521515948587820152a251908152f35b5050346103f657602090610581610578366107d2565b92919091610b1d565b90519015158152f35b50903461011457602092836003193601126101c657823567ffffffffffffffff81116103f657846106b1926105c5610627933690880161072e565b90608086516105d3816106be565b82815282858201528288820152606080820152015284519061061760ff8883519486818187019761060581838b61078a565b81016001815203019020015416610ad9565b855193849283925192839161078a565b8101600181520301902082519361063d856106be565b8154855260018060a01b0393846001840154169487870195865260ff600285015493838901948552610671600387016108c1565b9560608a01968752015416956080880196151587528251988998818a5251908901525116908601525160608501525160a0608085015260c08401906107ad565b9051151560a08301520390f35b60a0810190811067ffffffffffffffff8211176106da57604052565b634e487b7160e01b600052604160045260246000fd5b6060810190811067ffffffffffffffff8211176106da57604052565b90601f8019910116810190811067ffffffffffffffff8211176106da57604052565b81601f820112156107855780359067ffffffffffffffff82116106da5760405192610763601f8401601f19166020018561070c565b8284526020838301011161078557816000926020809301838601378301015290565b600080fd5b60005b83811061079d5750506000910152565b818101518382015260200161078d565b906020916107c68151809281855285808601910161078a565b601f01601f1916010190565b60606003198201126107855767ffffffffffffffff60043581811161078557826107fe9160040161072e565b92602435926044359083821161078557806023830112156107855781600401359384116107855760248460051b83010111610785576024019190565b6002548110156108715760026000527f405787fa12a823e0f2b7631cc41b3ba8828b3321ca811111fa75cd3aa3bb5ace0190600090565b634e487b7160e01b600052603260045260246000fd5b90600182811c921680156108b7575b60208310146108a157565b634e487b7160e01b600052602260045260246000fd5b91607f1691610896565b90604051918260008254926108d584610887565b9081845260019485811690816000146109445750600114610901575b50506108ff9250038361070c565b565b9093915060005260209081600020936000915b81831061092c5750506108ff935082010138806108f1565b85548884018501529485019487945091830191610914565b9150506108ff94506020925060ff191682840152151560051b82010138806108f1565b600435906001600160a01b038216820361078557565b6000546001600160a01b0316330361099157565b60405163118cdaa760e01b8152336004820152602490fd5b919091825167ffffffffffffffff81116106da576109c78254610887565b601f8111610a71575b50602080601f8311600114610a0d575081929394600092610a02575b50508160011b916000199060031b1c1916179055565b0151905038806109ec565b90601f198316958460005282600020926000905b888210610a5957505083600195969710610a40575b505050811b019055565b015160001960f88460031b161c19169055388080610a36565b80600185968294968601518155019501930190610a21565b600083815260208120601f840160051c81019260208510610aaf575b601f0160051c01915b828110610aa45750506109d0565b818155600101610a96565b9092508290610a8d565b610ad19060206040519282848094519384920161078a565b810103902090565b15610ae057565b60405162461bcd60e51b8152602060048201526015602482015274105d591a5d081c1c9bdbd9881b9bdd08199bdd5b99605a1b6044820152606490fd5b9190604093845194845195610b706020809881890190610b3e81868461078a565b840196610b5f60ff6001998a815287866004998a9303019020015416610ad9565b98855193849283925192839161078a565b810187815203019020549660009283965b858810610b945750505050505050501490565b90919293949596978860051b820135808210600014610bf55783519085820192835284820152838152610bc6816106f0565b519020975b6000198114610be257870196959493929190610b81565b634e487b7160e01b865260118552602486fd5b9083519085820192835284820152838152610c0f816106f0565b51902097610bcb56fea26469706673582212200a4843421353a376e7dfe3455dcbfef47cd295ccb13535b7c2ec7621b257e6f664736f6c63430008140033",
  "linkReferences": {},
  "deployedLinkReferences": {}
}