{
  "_format": "hh-sol-artifact-1",
  "contractName": "MerkleAuditProof",
  "sourceName": "contracts/MerkleAuditProof.sol",
  "abi": [
    {
      "inputs": [],
      "stateMutability": "nonpayable",
      "type": "constructor"
    },
    {
      "inputs": [
        {
          "internalType": "address",
          "name": "owner",
          "type": "address"
        }
      ],
      "name": "OwnableInvalidOwner",
      "type": "error"
    },
    {
      "inputs": [
        {
          "internalType": "address",
          "name": "account",
          "type": "address"
        }
      ],
      "name": "OwnableUnauthorizedAccount",
      "type": "error"
    },
    {
      "anonymous": false,
      "inputs": [
        {
          "indexed": true,
          "internalType": "string",
          "name": "auditId",
          "type": "string"
        },
        {
          "indexed": true,
          "internalType": "address",
          "name": "auditor",
          "type": "address"
        },
        {
          "indexed": false,
          "internalType": "bytes32",
          "name": "merkleRoot",
          "type": "bytes32"
        },
        {
          "indexed": false,
          "internalType": "uint256",
          "name": "timestamp",
          "type": "uint256"
        }
      ],
      "name": "AuditProofStored",
      "type": "event"
    },
    {
      "anonymous": false,
      "inputs": [
        {
          "indexed": true,
          "internalType": "string",
          "name": "auditId",
          "type": "string"
        },
        {
          "indexed": false,
          "internalType": "bytes32",
          "name": "leaf",
          "type": "bytes32"
        },
        {
          "indexed": false,
          "internalType": "bool",
          "name": "isValid",
          "type": "bool"
        }
      ],
      "name": "LeafVerified",
      "type": "event"
    },
    {
      "anonymous": false,
      "inputs": [
        {
          "indexed": true,
          "internalType": "address",
          "name": "previousOwner",
          "type": "address"
        },
        {
          "indexed": true,
          "internalType": "address",
          "name": "newOwner",
          "type": "address"
        }
      ],
      "name": "OwnershipTransferred",
      "type": "event"
    },
    {
      "inputs": [
        {
          "internalType": "uint256",
          "name": "",
          "type": "uint256"
        }
      ],
      "name": "auditIds",
      "outputs": [
        {
          "internalType": "string",
          "name": "",
          "type": "string"
        }
      ],
      "stateMutability": "view",
      "type": "function"
    },
    {
      "inputs": [
        {
          "internalType": "string",
          "name": "",
          "type": "string"
        }
      ],
      "name": "auditProofs",
      "outputs": [
        {
          "internalType": "bytes32",
          "name": "merkleRoot",
          "type": "bytes32"
        },
        {
          "internalType": "address",
          "name": "auditor",
          "type": "address"
        },
        {
          "internalType": "uint256",
          "name": "timestamp",
          "type": "uint256"
        },
        {
          "internalType": "string",
          "name": "auditId",
          "type": "string"
        },
        {
          "internalType": "bool",
          "name": "exists",
          "type": "bool"
        }
      ],
      "stateMutability": "view",
      "type": "function"
    },
    {
      "inputs": [
        {
          "internalType": "string",
          "name": "auditId",
          "type": "string"
        }
      ],
      "name": "getAuditProof",
      "outputs": [
        {
          "components": [
            {
              "internalType": "bytes32",
              "name": "merkleRoot",
              "type": "bytes32"
            },
            {
              "internalType": "address",
              "name": "auditor",
              "type": "address"
            },
            {
              "internalType": "uint256",
              "name": "timestamp",
              "type": "uint256"
            },
            {
              "internalType": "string",
              "name": "auditId",
              "type": "string"
            },
            {
              "internalType": "bool",
              "name": "exists",
              "type": "bool"
            }
          ],
          "internalType": "struct MerkleAuditProof.AuditProof",
          "name": "",
          "type": "tuple"
        }
      ],
      "stateMutability": "view",
      "type": "function"
    },
    {
      "inputs": [],
      "name": "getTotalProofs",
      "outputs": [
        {
          "internalType": "uint256",
          "name": "",
          "type": "uint256"
        }
      ],
      "stateMutability": "view",
      "type": "function"
    },
    {
      "inputs": [],
      "name": "owner",
      "outputs": [
        {
          "internalType": "address",
          "name": "",
          "type": "address"
        }
      ],
      "stateMutability": "view",
      "type": "function"
    },
    {
      "inputs": [],
      "name": "renounceOwnership",
      "outputs": [],
      "stateMutability": "nonpayable",
      "type": "function"
    },
    {
      "inputs": [
        {
          "internalType": "address",
          "name": "auditor",
          "type": "address"
        },
        {
          "internalType": "bytes32",
          "name": "merkleRoot",
          "type": "bytes32"
        },
        {
          "internalType": "string",
          "name": "auditId",
          "type": "string"
        }
      ],
      "name": "storeAuditProof",
      "outputs": [],
      "stateMutability": "nonpayable",
      "type": "function"
    },
    {
      "inputs": [
        {
          "internalType": "address",
          "name": "newOwner",
          "type": "address"
        }
      ],
      "name": "transferOwnership",
      "outputs": [],
      "stateMutability": "nonpayable",
      "type": "function"
    },
    {
      "inputs": [
        {
          "internalType": "string",
          "name": "auditId",
          "type": "string"
        },
        {
          "internalType": "bytes32",
          "name": "leaf",
          "type": "bytes32"
        },
        {
          "internalType": "bytes32[]",
          "name": "merkleProof",
          "type": "bytes32[]"
        }
      ],
      "name": "verifyLeaf",
      "outputs": [
        {
          "internalType": "bool",
          "name": "",
          "type": "bool"
        }
      ],
      "stateMutability": "nonpayable",
      "type": "function"
    }
  ],
  "bytecode": "0x6080806040523461007a5733156100645760008054336001600160a01b03198216811783556040519290916001600160a01b0316907f8be0079c531659141344cd1fd0a4f28419497f9722a3daafe3b4186f6b6457e09080a3610bf890816100808239f35b631e4fbdf760e01b815260006004820152602490fd5b600080fdfe6040608081526004908136101561001557600080fd5b600091823560e01c80630e5ad705146106975780634c07a9a3146104f5578063715018a61461049b578063876e551e146104365780638da5cb5b1461040e5780639b1bc0c9146103ef578063aae12f39146101be578063bad6fadb1461010d5763f2fde38b1461008457600080fd5b346101095760203660031901126101095761009d610a0c565b906100a6610a22565b6001600160a01b039182169283156100f357505082546001600160a01b0319811683178455167f8be0079c531659141344cd1fd0a4f28419497f9722a3daafe3b4186f6b6457e08380a380f35b51631e4fbdf760e01b8152908101849052602490fd5b8280fd5b5091346101bb5760203660031901126101bb5782359067ffffffffffffffff82116101bb57506020610145610157923690860161083b565b81845193828580945193849201610897565b81016001815203019020906101af82549260018060a01b036001820154169460ff60028301549161018a60038501610966565b930154169380519687968752602087015285015260a0606085015260a08401906108ba565b90151560808301520390f35b80fd5b509190346103eb5760603660031901126103eb576101da610a0c565b906024359060443567ffffffffffffffff81116103e7576101fe903690870161083b565b91610207610a22565b815192805160ff88602096878181870195610223818389610897565b810160018152030190200154166103a457821561036b578784916102c883519161024c836107cb565b8683528883019960018060a01b038091169a8b81528685019142835261028d8c60608801958b87528b60808a019b60018d5251938492839251928391610897565b8101600181520301902095518655600186019151166bffffffffffffffffffffffff60a01b8254161790555160028401555160038301610a4e565b019051151560ff8019835416911617905560025468010000000000000000811015610358578060016102fd92016002556108df565b61034657816103327f33930f8a9733fef9fce865d7f39448adda703102eb5aa980093ad6f9096d5bd595949361033793610a4e565b610b5e565b9382519182524290820152a380f35b634e487b7160e01b8752868852602487fd5b634e487b7160e01b875260418852602487fd5b835162461bcd60e51b81528089018690526013602482015272125b9d985b1a59081b595c9adb19481c9bdbdd606a1b6044820152606490fd5b835162461bcd60e51b8152808901869052601a60248201527f41756469742070726f6f6620616c7265616479206578697374730000000000006044820152606490fd5b8480fd5b5080fd5b5050346103eb57816003193601126103eb576020906002549051908152f35b5050346103eb57816003193601126103eb57905490516001600160a01b039091168152602090f35b5091346101bb5760203660031901126101bb5782356002548110156103eb5761045e906108df565b939093610489576104858361047286610966565b90519182916020835260208301906108ba565b0390f35b634e487b7160e01b8252819052602490fd5b83346101bb57806003193601126101bb576104b4610a22565b80546001600160a01b03198116825581906001600160a01b03167f8be0079c531659141344cd1fd0a4f28419497f9722a3daafe3b4186f6b6457e08280a380f35b5090346101095760603660031901126101095767ffffffffffffffff9282358481116103eb57610528903690850161083b565b92602490813592604435968088116103eb57366023890112156103eb57878301359081116103eb57600593368183871b8b01011161010957918693989491889385519285519b6105b36020809e6105a160ff85848d019361058a818d87610897565b8b019a858160019d8e815203019020015416610b7e565b8c998b51938492839251928391610897565b810188815203019020549882965b85881061060f5750505050505050507f01aba74e67c5932a05fc1140c9af469c9f0e4248de929bacdb5a325212764909926105fd911495610b5e565b9281519081528587820152a251908152f35b919395979092949698508d868a841b85010135808310600014610675578d519182019283528d8201528c8152610644816107fd565b519020975b60001981146106625787019593918b98979593916105c1565b5050634e487b7160e01b83525060119052fd5b918d519182019283528d8201528c815261068e816107fd565b51902097610649565b50903461010957602092836003193601126101bb57823567ffffffffffffffff81116103eb57846107be926106d2610734933690880161083b565b90608086516106e0816107cb565b82815282858201528288820152606080820152015284519061072460ff8883519486818187019761071281838b610897565b81016001815203019020015416610b7e565b8551938492839251928391610897565b8101600181520301902082519361074a856107cb565b8154855260018060a01b0393846001840154169487870195865260ff60028501549383890194855261077e60038701610966565b9560608a01968752015416956080880196151587528251988998818a5251908901525116908601525160608501525160a0608085015260c08401906108ba565b9051151560a08301520390f35b60a0810190811067ffffffffffffffff8211176107e757604052565b634e487b7160e01b600052604160045260246000fd5b6060810190811067ffffffffffffffff8211176107e757604052565b90601f8019910116810190811067ffffffffffffffff8211176107e757604052565b81601f820112156108925780359067ffffffffffffffff82116107e75760405192610870601f8401601f191660200185610819565b8284526020838301011161089257816000926020809301838601378301015290565b600080fd5b60005b8381106108aa5750506000910152565b818101518382015260200161089a565b906020916108d381518092818552858086019101610897565b601f01601f1916010190565b6002548110156109165760026000527f405787fa12a823e0f2b7631cc41b3ba8828b3321ca811111fa75cd3aa3bb5ace0190600090565b634e487b7160e01b600052603260045260246000fd5b90600182811c9216801561095c575b602083101461094657565b634e487b7160e01b600052602260045260246000fd5b91607f169161093b565b906040519182600082549261097a8461092c565b9081845260019485811690816000146109e957506001146109a6575b50506109a492500383610819565b565b9093915060005260209081600020936000915b8183106109d15750506109a493508201013880610996565b855488840185015294850194879450918301916109b9565b9150506109a494506020925060ff191682840152151560051b8201013880610996565b600435906001600160a01b038216820361089257565b6000546001600160a01b03163303610a3657565b60405163118cdaa760e01b8152336004820152602490fd5b919091825167ffffffffffffffff81116107e757610a6c825461092c565b601f8111610b16575b50602080601f8311600114610ab2575081929394600092610aa7575b50508160011b916000199060031b1c1916179055565b015190503880610a91565b90601f198316958460005282600020926000905b888210610afe57505083600195969710610ae5575b505050811b019055565b015160001960f88460031b161c19169055388080610adb565b80600185968294968601518155019501930190610ac6565b600083815260208120601f840160051c81019260208510610b54575b601f0160051c01915b828110610b49575050610a75565b818155600101610b3b565b9092508290610b32565b610b7690602060405192828480945193849201610897565b810103902090565b15610b8557565b60405162461bcd60e51b8152602060048201526015602482015274105d591a5d081c1c9bdbd9881b9bdd08199bdd5b99605a1b6044820152606490fdfea26469706673582212200b0f05af4324f85db07c19be67261a117bb681914f0de00fdd2ccb4fbf2fa6bd64736f6c63430008140033",
  "linkReferences": {},
  "deployedLinkReferences": {}
}